:020000020000FC
:0200000002C03C
:10000400A2C0289A0E9410000E9415000E94350088
:100014000E9443000E9461002898FECF07EF01B9B7
:100024000E949D00089502E00E94680008E20E9478
:1000340068000EE00E94680001E00E94680000E889
:100044000E946800F0E0ECE50591003011F04ED01C
:10005400FBCF00EC3BD008954B45592050524553FB
:100064005345443A200001EB04B901E50CBD2C9A38
:1000740008952C981EBD0DB507FFFDCF289A1EB517
:10008400089500270093C50007E602E00093C0002E
:100094000093C40008E10093C10006E00093C2008D
:1000A40008950091C00005FFFCCF1093C600089589
:1000B4000091C00007FFFCCF1091C600089578940A
:1000C40002E00093690001E00DBB089534D0202FB5
:1000D400207F22B9129A1CD012981DD00295007F5D
:1000E40002B9129A15D0129816D0089524D0202F50
:1000F400207F22B9109A129A0BD012980CD0029534
:10010400007F02B9109A129A03D0129804D008956D
:100114000000000008951F9314E60E948A001A95B7
:10012400E1F71F9108951F9314E10E948D001A9521
:10013400E1F71F9108951F931AE00E9495001A9504
:10014400E1F71F91089510E394DF289A1F3F29F0E7
:10015400012FCCDF00ECBADF04C000E2C7DF00EC03
:08016400B5DF01E00CBB1895AA
:00000001FF
