:020000020000FC
:100000000E940B000E9412001999FECF289A14D06A
:1000100036D00BD0F9CF01E404B90FE00AB900EFF4
:100020000BB9089500E40CBD08951EBD28980DB5C8
:1000300007FFFDCF289A08954FE04BB967EF70E0B6
:1000400083E06BB90E944F004C9901C011C04D99DB
:1000500002C071E00DC04E9902C072E009C04F9914
:1000600002C073E005C0803041F067958A95E9CF02
:10007000770F770F780F172F08951FEF089500E07F
:10008000F02F0CE8E02FE10F149108953031323356
:10009000343536373839414243444546FF000AE09B
:1000A0000093810007E20093890000E1009388003B
:1000B00000270093850000938400B19BFECFB19A86
:0C00C00000270093800000938100089549
:00000001FF
